:100000000C9434000C943E000C943E000C943E0082
:100010000C943E000C943E000C943E000C943E0068
:100020000C943E000C943E000C943E000C943E0058
:100030000C943E000C94D3000C943E000C943E00B3
:100040000C943E000C943E000C943E000C943E0038
:100050000C943E000C943E000C943E000C943E0028
:100060000C943E000C943E0011241FBECFEFD8E04C
:10007000DEBFCDBF0E947B000C94E4000C94000016
:10008000FC01408121E030E001C0220F6A95EAF7CF
:10009000242B20830895FC01808121E030E001C001
:1000A000220F6A95EAF72095822380838181282395
:1000B00021830895FC01908121E030E001C0220FEE
:1000C0006A95EAF72095292320830895FC01408151
:1000D00021E030E001C0220F6A95EAF7242B20834B
:1000E0000895FC01808190E002C0959587956A95FE
:1000F000E2F78170089565E084E290E00E9440009C
:1001000065E085E290E00E945A0064E084E290E0BD
:100110000E94400064E085E290E00E945A0063E0A3
:1001200084E290E00E94400063E085E290E00E945B
:100130005A0062E084E290E00E94400062E085E2C2
:1001400090E00E945A0061E087E290E00E944B003C
:10015000809181008B7F80938100809181008360FA
:100160008093810080916F00816080936F0078940C
:1001700061E086E290E00E947100811109C08091E7
:1001800081008A7F8093810080918100826008C015
:10019000809181008B7F80938100809181008360BA
:1001A00080938100E5CF1F920F920FB60F9211241A
:1001B00065E085E290E00E94660065E085E290E0FF
:0C01C0000E945A000E94D300F894FFCF68
:00000001FF
