S01100006D6F727365636F64652E7372656352
S11300000C9434000C943E000C943E000C943E007E
S11300100C943E000C943E000C943E000C943E0064
S11300200C943E000C943E000C943E000C943E0054
S11300300C943E000C943E000C943E000C943E0044
S11300400C943E000C943E000C943E000C943E0034
S11300500C943E000C943E000C943E000C943E0024
S11300600C943E000C943E0011241FBECFEFD8E048
S1130070DEBFCDBF0E9440000C9477000C940000BA
S113008084B1806284B985B18F7D85B92FE788E317
S113009091E0215080409040E1F700C0000085B11C
S11300A08F7D85B92FE788E391E02150804090400F
S11300B0E1F700C0000085B18F7D85B92FE788E3A3
S11300C091E0215080409040E1F700C0000085B1EC
S11300D08F7D85B92FE38DE093E0215080409040DF
S11300E0E1F700C0000085B18F7D85B9CFCFF894CA
S10500F0FFCF3C
S9030000FC
