:100000000C9434000C9449000C9449000C94490061
:100010000C9449000C9449000C9449000C9449003C
:100020000C9449000C9449000C9449000C9449002C
:100030000C9449000C9477000C9449000C944900EE
:100040000C9449000C9449000C9449000C9449000C
:100050000C9449000C9449000C9449000C944900FC
:100060000C9449000C94490011241FBECFEFD8E036
:10007000DEBFCDBF11E0A0E0B1E0E4E1F2E002C0FC
:1000800005900D92AE30B107D9F70E9470000C9424
:1000900008010C940000FC01408121E030E002C026
:1000A000220F331F6A95E2F7242B20830895FC0169
:1000B000908121E030E002C0220F331F6A95E2F701
:1000C0002095292320830895FC01408121E030E020
:1000D00002C0220F331F6A95E2F7242B2083089574
:1000E0000E94810060E18DE00E949100FFCF1F928D
:1000F0000F920FB60F9211240F900FBE0F901F900A
:10010000189564E08AE290E00E944B0067E08AE282
:1001100090E00E944B0060E084E290E00E944B007F
:1001200008951F93CF93DF93E82FF0E0EC5FFE4F2D
:100130001081E62FF0E0E050FF4FD08164E08BE2C9
:1001400090E00E94570067E08BE290E00E94570029
:1001500060E08BE290E00E94570085E08A95F1F71D
:100160000000C0E021C010FD06C060E08BE290E01E
:100170000E94570005C060E08BE290E00E9464009E
:1001800085E08A95F1F7000067E08BE290E00E943D
:10019000640085E08A95F1F7000067E08BE290E06B
:1001A0000E9457001695CF5FC830E8F2C0E021C02A
:1001B000D0FD06C060E08BE290E00E94570005C0D1
:1001C00060E08BE290E00E94640085E08A95F1F7A0
:1001D000000067E08BE290E00E94640085E08A9571
:1001E000F1F7000067E08BE290E00E945700D6959F
:1001F000CF5FC830E8F267E08BE290E00E946400D5
:1002000085E08A95F1F70000DF91CF911F91089565
:04021000F894FFCF90
:0E02140010204080039F250D9949411F0119BC
:00000001FF
