:100000000C9434000C9451000C9451000C94510049
:100010000C9451000C9451000C9451000C9451001C
:100020000C9451000C9451000C9451000C9451000C
:100030000C9451000C946C000C9451000C945100E1
:100040000C9451000C9451000C9422010C9450011A
:100050000C9451000C9451000C9451000C945100DC
:100060000C9451000C94510011241FBECFEFD8E026
:10007000DEBFCDBF11E0A0E0B1E0ECEDF3E002C0E7
:1000800005900D92A234B107D9F721E0A2E4B1E0C6
:1000900001C01D92A738B207E1F70E9453000C94EB
:1000A000EC010C9400000E94F20087E690E00E94B0
:1000B0007A01E1E8F0E080818A7F8083808182603C
:1000C0008083EFE6F0E0808181608083789482E035
:1000D00091E00E94AA01FFCF1F920F920FB60F92DC
:1000E00011241F932F933F934F935F936F937F93AD
:1000F0008F939F93AF93BF93EF93FF93CF93DF9330
:1001000000D0CDB7DEB780E390E39A8389838091F6
:100110000101823051F18330D1F1813009F049C0C1
:100120008091000191E0980F9093000187508037F3
:1001300020F482E0809301013FC0983781F480E28F
:1001400091E00E94AA014AE0BE016F5F7F4F80E00C
:1001500090E00E94B701CE0101960E94AA01109280
:10016000000181E08093010127C080910001880F88
:100170000E940101182F0E941E01111104C083E08A
:100180008093010119C081E08093010115C0809125
:10019000000140E1BE016F5F7F4F90E00E94B70118
:1001A000CE0101960E94AA018EE391E00E94AA016D
:1001B00003C081E0809301010F900F90DF91CF91F8
:1001C000FF91EF91BF91AF919F918F917F916F912F
:1001D0005F914F913F912F911F910F900FBE0F9004
:1001E0001F90189587B18F7C87B988B1806388B9D3
:1001F000E9EBF0E080818C7F808388E98093B80010
:10020000089594EA9093BC009091BC009923E4F780
:100210008093BB0084E88093BC008091BC0088235D
:10022000E4F78091B900887F883121F0803421F48F
:1002300080E0089580E0089581E0089584E9809346
:10024000BC0008951F920F920FB60F9211242F93A6
:100250008F939F93EF93FF938091C0002091C600EE
:100260008C71E0914401EF5FEF7190914301E917C8
:1002700039F0E0934401F0E0E95BFE4F208301C0D8
:1002800082E090914201892B80934201FF91EF918E
:100290009F918F912F910F900FBE0F901F901895E7
:1002A0001F920F920FB60F9211248F939F93EF938B
:1002B000FF939091460180914501981769F0E09174
:1002C0004501EF5FEF71E0934501F0E0E959FE4F22
:1002D00080818093C60005C0E1ECF0E080818F7DD5
:1002E0008083FF91EF919F918F910F900FBE0F90A0
:1002F0001F901895109246011092450110924401EA
:1003000010924301282F392F33231CF422E020932D
:10031000C00090789093C5008093C40088E98093D2
:10032000C10086E08093C2000895209146012F5FAE
:100330002F71909145012917E1F3E22FF0E0E9597F
:10034000FE4F808320934601E1ECF0E080818062E3
:1003500080830895CF93DF93EC0103C021960E9420
:10036000950188818111FACFDF91CF910895BB2744
:100370004A3031F4992322F4BDE2909581959F4F44
:100380000C94C301BB27FB015527AA27880F991F8F
:10039000AA1FA41710F0A41B83955051B9F7A05DB4
:1003A000AA3308F0A95DA193009779F7B111B19331
:1003B0001192CB010C94DC01DC01FC01672F7191DF
:1003C0007723E1F7329704C07C916D93708362913B
:0C03D000AE17BF07C8F30895F894FFCFE4
:1003DC0007010D0A5363616E204932432D62757318
:1003EC0020666F7220646576696365733A0D0A0046
:1003FC004E756D626572206F6620646574656374FA
:10040C00656420646576696365733A20200020205A
:02041C002000BE
:00000001FF
